:100000000C943B000C9458000C9458000C9458002D
:100010000C9458000C9458000C9458000C94580000
:100020000C9458000C9458000C9458000C945800F0
:100030000C9458000C9458000C9458000C945800E0
:100040000C9458000C94C9000C9458000C9458005F
:100050000C9458000C9489000C9458000C9458008F
:100060000C9458000C94580063016A0171017B01E3
:1000700085018F01990111241FBECFEFD8E0DEBFAB
:10008000CDBF11E0A0E0B1E0E4E7F3E002C00590ED
:100090000D92A230B107D9F721E0A2E0B1E001C092
:1000A0001D92A430B207E1F70E9484000C94B801BD
:1000B0000C9400008FEF8AB91BB80895F894E1E61C
:1000C000F0E080E8808310821092C1000E945A0004
:1000D000809100010E94300124E040E060E080E473
:1000E0000E944B018CB580688CBD789408958091F6
:1000F00003018BB92FEF81EE94E0215080409040B6
:10010000E1F700C0000008950E945E000E947700A1
:10011000FDCF1F920F920FB60F9211242F933F9392
:100120004F935F936F937F938F939F93AF93BF93FF
:10013000EF93FF93F89480910001863041F4809111
:1001400079008093030187E08093000107C08091CC
:1001500079008093020186E0809300018091000184
:100160000E94F900EAE7F0E080818064808378945F
:10017000FF91EF91BF91AF919F918F917F916F917F
:100180005F914F913F912F910F900FBE0F901F9055
:1001900018951F920F920FB60F9211242F933F9331
:1001A0004F935F936F937F938F939F93AF93BF937F
:1001B000EF93FF938EB58A3029F4809103010E945A
:1001C000B00106C08B3021F4809102010E94B00181
:1001D000FF91EF91BF91AF919F918F917F916F911F
:1001E0005F914F913F912F910F900FBE0F901F90F5
:1001F00018958230B9F028F4882341F0813061F0FD
:1002000029C08630A9F08730E1F024C0ECE7F0E0A7
:100210008081807F80830895ECE7F0E080818160B9
:1002200080830895ECE7F0E0808182608083089508
:10023000ECE7F0E08081866080838081867F808328
:100240000895ECE7F0E08081876080838081877F7C
:1002500080830895ECE7F0E08081807F80830895BB
:10026000ECE7F0E01082908190649083908190623E
:1002700090830E94F900EAE7F0E0108280818860B4
:100280008083808187608083808180688083808193
:10029000806480830895E82F84FF52C084B18C620B
:1002A00084B984B18F7E84B98CB580618CBDE770D0
:1002B0008E2F90E08730910508F04BC0FC01EC5C7C
:1002C000FF4F0C94B2018CB58C7F8CBD8DB58160D5
:1002D0008DBD3FC08CB58C7F8CBD8DB58E7F8DBDA7
:1002E00038C08CB581608CBD8CB58D7F8CBD8DB5D3
:1002F00081608DBD2EC08CB581608CBD8CB58D7F2D
:100300008CBD8DB58E7F8DBD24C08CB58E7F8CBD90
:100310008CB582608CBD8DB581608DBD1AC08CB5E9
:100320008E7F8CBD8CB582608CBD8DB58E7F8DBD72
:1003300010C08CB583608CBD8DB58E7F8DBD09C01E
:1003400084B1837D84B984B1806184B98CB58F7E9A
:100350008CBD8CB5462B242B282B20642CBD0895F6
:100360008EBD0895EE0FFF1F0590F491E02D0994C6
:04037000F894FFCF2F
:02037400060081
:00000001FF
