S01200005350495F4D61737465722E737265635B
S11300000C943B000C9458000C9458000C94580029
S11300100C9458000C9458000C9458000C945800FC
S11300200C9458000C9458000C9458000C945800EC
S11300300C9458000C9458000C9458000C945800DC
S11300400C9458000C9458000C9458000C945800CC
S11300500C9458000C9458000C9458000C945800BC
S11300600C9458000C94580004010B0112011C015B
S1130070260130013A0111241FBECFEFD8E0DEBFC4
S1130080CDBF11E0A0E0B1E0EEE8F3E002C00590DE
S11300900D92AE31B107D9F721E0AEE1B1E001C074
S11300A01D92A034B207E1F70E94E3000C94C5014D
S11300B00C9400008FEF87B918B88AB18C608AB9A4
S11300C08BB1837F8BB984B1846084B985B184603A
S11300D085B90895F894E1E6F0E080E88083108221
S11300E00E9458010E945A0024E040E060E083E549
S11300F00E94EC007894089585B18B7F85B98FE3D5
S11301009CE90197F1F700C000008BE00E945101C7
S11301100E94530180931F018FE39CE90197F1F73B
S113012000C000008AE00E9451010E9453018093A4
S11301301E0180911F018F7388B980911F0186FF72
S113014004C08BB184608BB903C08BB18B7F8BB936
S113015080911F01882324F48BB188608BB903C07C
S11301608BB1877F8BB985B1846085B980E091E0DC
S11301700E94740180911E014AE060E371E090E006
S11301800E94900180E391E00E94740188E091E074
S11301900E94740180911F014AE060E271E090E0E6
S11301A00E94900180E291E00E9474018AE00E9422
S11301B06D019FEF21EE84E0915020408040E1F7F3
S11301C000C0000008950E946A0081E191E00E944D
S11301D074010E947C00FDCFE82F84FF52C084B1DB
S11301E08C6284B984B18F7E84B98CB580618CBDF6
S11301F0E7708E2F90E08730910508F04BC0FC012A
S1130200EC5CFF4F0C948A018CB58C7F8CBD8DB552
S113021081608DBD3FC08CB58C7F8CBD8DB58E7FCC
S11302208DBD38C08CB581608CBD8CB58D7F8CBD87
S11302308DB581608DBD2EC08CB581608CBD8CB5B3
S11302408D7F8CBD8DB58E7F8DBD24C08CB58E7F8A
S11302508CBD8CB582608CBD8DB581608DBD1AC09E
S11302608CB58E7F8CBD8CB582608CBD8DB58E7F38
S11302708DBD10C08CB583608CBD8DB58E7F8DBD5A
S113028009C084B1837D84B984B1806184B98CB59B
S11302908F7E8CBD8CB5462B242B282B20642CBD43
S11302A008958EBD08950DB407FEFDCF8EB5089553
S11302B08AB182608AB98AB18E7F8AB91092C000ED
S11302C088E98093C10086E08093C20087E690E0CD
S11302D09093C5008093C40008959091C00095FF49
S11302E0FCCF8093C60008950F931F93CF93DF93A1
S11302F08C01C0E0D0E003C00E946D012196F8019A
S1130300EC0FFD1F80818111F7CFDF91CF911F91F9
S11303100F910895EE0FFF1F0590F491E02D0994BD
S1130320BB274A3031F4992322F4BDE2909581959C
S11303309F4F0C949C01BB27FB015527AA27880FCC
S1130340991FAA1FA41710F0A41B83955051B9F745
S1130350A05DAA3308F0A95DA193009779F7B111C4
S1130360B1931192CB010C94B501DC01FC01672F10
S113037071917723E1F7329704C07C916D93708378
S11103806291AE17BF07C8F30895F894FFCF3B
S113038E41444320363A20000941444320373A2061
S111039E004144432076616C7565733A00009B
S9030000FC
