:100000000C943B000C944D000C944D000C944D004E
:100010000C944D000C944D000C944D000C944D002C
:100020000C944D000C944D000C944D000C944D001C
:100030000C944D000C944D000C944D000C944D000C
:100040000C944D000C9478000C944D000C944D00D1
:100050000C944D000C944D000C944D000C944D00EC
:100060000C944D000C944D009F00A600AD00B7000D
:10007000C100CB00D50011241FBECFEFD8E0DEBFFA
:10008000CDBF21E0A0E0B1E001C01D92A130B207D8
:10009000E1F70E9473000C94F2000C9400008FEFC3
:1000A0008AB91BB80895F894E1E6F0E080E880830F
:1000B00010820E944F0024E040E060E080E40E9453
:1000C00087008CB580688CBD78940895809100017C
:1000D0008BB92FEF81EE94E0215080409040E1F702
:1000E00000C0000008950E9453000E946600FDCFEA
:1000F0001F920F920FB60F9211248F938EB580939B
:1001000000018F910F900FBE0F901F901895E82F50
:1001100084FF52C084B18C6284B984B18F7E84B96B
:100120008CB580618CBDE7708E2F90E08730910593
:1001300008F04BC0FC01EC5CFF4F0C94EC008CB55C
:100140008C7F8CBD8DB581608DBD3FC08CB58C7FA3
:100150008CBD8DB58E7F8DBD38C08CB581608CBD5A
:100160008CB58D7F8CBD8DB581608DBD2EC08CB55D
:1001700081608CBD8CB58D7F8CBD8DB58E7F8DBD26
:1001800024C08CB58E7F8CBD8CB582608CBD8DB546
:1001900081608DBD1AC08CB58E7F8CBD8CB58260A0
:1001A0008CBD8DB58E7F8DBD10C08CB583608CBD30
:1001B0008DB58E7F8DBD09C084B1837D84B984B136
:1001C000806184B98CB58F7E8CBD8CB5462B242B79
:1001D000282B20642CBD0895EE0FFF1F0590F4918D
:0801E000E02D0994F894FFCF13
:00000001FF
