S01200005350495F4D61737465722E737265635B
S11300000C943B000C9458000C9458000C94580029
S11300100C9458000C9458000C9458000C945800FC
S11300200C9458000C9458000C9458000C945800EC
S11300300C9458000C9458000C9458000C945800DC
S11300400C9458000C9458000C94C5000C9458005F
S11300500C9458000C9458000C9458000C945800BC
S11300600C9458000C9458001D0124012B013501F7
S11300703F014901530111241FBECFEFD8E0DEBF79
S1130080CDBF11E0A0E0B1E0ECE4F3E002C00590E4
S11300900D92AA32B107D9F721E0AAE2B1E001C07A
S11300A01D92AD33B207E1F70E94B8000C94A4018D
S11300B00C9400008FEF87B918B88AB18C608AB9A4
S11300C08BB1837F8BB984B1846084B985B184603A
S11300D085B90895F894E1E6F0E080E88083108221
S11300E00E946C010E945A0024E040E060E083E535
S11300F00E9405017894089580912B018130B9F50F
S113010010922B0185B18B7F85B980912A010E94C1
S11301106A018FE39CE90197F1F700C00000809128
S11301202A018F7388B980912A0186FF04C08BB19C
S113013084608BB903C08BB18B7F8BB980912A010A
S1130140882324F48BB188608BB903C08BB1877F7B
S11301508BB985B1846085B910922A019FEF21EE95
S113016084E0915020408040E1F700C000000895F1
S11301700E946A0080E091E00E94880189E091E099
S11301800E9488010E947C00FDCF1F920F920FB63F
S11301900F9211242F933F934F935F936F937F9309
S11301A08F939F93AF93BF93EF93FF938091C60078
S11301B080933C0190ED980F9A3060F490912A015D
S11301C0990F292F220F220F920F890F80538093AA
S11301D02A0107C08A3011F08D3019F481E0809330
S11301E02B018AE00E948101FF91EF91BF91AF91B1
S11301F09F918F917F916F915F914F913F912F913B
S11302000F900FBE0F901F901895E82F84FF52C0D7
S113021084B18C6284B984B18F7E84B98CB58061D9
S11302208CBDE7708E2F90E08730910508F04BC0AD
S1130230FC01EC5CFF4F0C949E018CB58C7F8CBD53
S11302408DB581608DBD3FC08CB58C7F8CBD8DB567
S11302508E7F8DBD38C08CB581608CBD8CB58D7F93
S11302608CBD8DB581608DBD2EC08CB581608CBD7B
S11302708CB58D7F8CBD8DB58E7F8DBD24C08CB526
S11302808E7F8CBD8CB582608CBD8DB581608DBD3B
S11302901AC08CB58E7F8CBD8CB582608CBD8DB53B
S11302A08E7F8DBD10C08CB583608CBD8DB58E7F67
S11302B08DBD09C084B1837D84B984B1806184B962
S11302C08CB58F7E8CBD8CB5462B242B282B2064BB
S11302D02CBD08958EBD08958AB182608AB98AB111
S11302E08E7F8AB91092C00088E98093C10086E0AD
S11302F08093C20087E690E09093C5008093C40089
S113030008959091C00095FFFCCF8093C600089596
S11303100F931F93CF93DF938C01C0E0D0E003C011
S11303200E9481012196F801EC0FFD1F808181114B
S1130330F7CFDF91CF911F910F910895EE0FFF1F1B
S10F03400590F491E02D0994F894FFCF8F
S113034C57656C636F6D650A00577269746520613B
S113035C2076616C7565206265747765656E2030F6
S10D036C20616E64203235350A006A
S9030000FC
